S01A0000546573746F77616E69654E61506C797463652E73726563C7
S113000062C069C068C067C066C065C064C063C0C0
S113001062C061C060C05FC05EC05DC05CC05BC0E8
S11300205AC059C058C092C098C09EC0A4C0AAC0AB
S1130030B0C0B6C0BCC0C2C0C8C0D4C0D3C0D2C097
S1130040D1C0D0C0CFC0CEC0CDC0CCC0CBC0CAC040
S1130050C9C0C8C0C7C0C6C0C5C0C4C0C3C0C2C070
S1130060C1C0C0C0BFC0BEC0BDC0BCC0BBC0BAC0A0
S1130070B9C0B8C0B7C0B6C0B5C0B4C0B3C0B2C0D0
S1130080B1C0B0C0AFC0AEC0ADC0ACC0ABC0AAC000
S1130090A9C0A8C0A7C0A6C0A5C0A4C0A3C0A2C030
S11300A0A1C0A0C09FC09EC09DC09CC09BC09AC060
S11300B093C0C8C0CDC0D2C0D7C0DCC0E1C0E6C0C8
S11300C0EBC0F0C0F5C011241FBECFE5D4E0DEBF05
S11300D0CDBFD4D111C394CF94EA96BF06B607FE20
S11300E0FDCF91B1987F983019F081B1887F089540
S11300F083B984E886BF06B607FEFDCF81B1887F49
S1130100883119F081B1887F0895609563B984E8D6
S113011086BF06B607FEFDCF81B1887F883219F00D
S113012081B1887F089584E986BF80E00895CF93E4
S1130130C82FFB01642F80E40995EC2FF0E0E6342E
S1130140F10508F04FC0ED5EFF4F099488B3807C41
S1130150876088BB88EF85BB45C088B3807C876295
S113016088BB87E085BB3EC088B3807C8B6088BB3E
S11301708AEF85BB37C088B3807C836088BB8EEFF1
S113018085BB30C088B3807C836288BB8DEF85BB20
S113019029C088B3807C836188BB8CEF85BB22C077
S11301A088B3807C836188BB88EF85BB1BC088B320
S11301B0807C876088BB87E085BB14C088B3807C63
S11301C0836088BB88EF85BB0DC088B3807C836067
S11301D088BB8CEF85BB06C088B3807C8B6188BBF1
S11301E088EF85BB80E0CF9108956F927F928F92C4
S11301F09F92AF92BF92CF92DF92EF921F93CF93D1
S1130200DF933B01442309F467C010E166C0612F0A
S113021080E4F3010995123011F0103251F488B3DF
S1130220807C8D6388BB87EE93E00197F1F700C073
S113023000008991E82FF0E0EA30F105F0F5E75A83
S1130240FF4F099488B3807C876088BBC5BA35C0EA
S113025088B3807C876288BBD5BA2FC088B3807C82
S11302608B6088BBA5BA29C088B3807C836088BBB7
S113027095BA23C088B3807C836288BB85BA1DC0CD
S113028088B3807C836188BBB5BA17C088B3807C8F
S1130290836188BBC5BA11C088B3807C876088BB82
S11302A0D5BA0BC088B3807C836088BBC5BA05C04F
S11302B088B3807C836088BBB5BAEFE9FFE03197EF
S11302C0F1F700C0000088B38F6388BBD5BA110F63
S11302D0EA9409F09CCF1FC011E0C82FD92F68946D
S11302E0EE24E2F80F2EFCEFBF2EF02D0F2EF8EFC8
S11302F0CF2EF02D0F2EF7E0DF2EF02D0F2EFDEF79
S11303008F2EF02D0F2EFEEF9F2EF02D0F2EFAEFD5
S1130310AF2EF02D7CCF80E0DF91CF911F91EF9035
S1130320DF90CF90BF90AF909F908F907F906F9011
S113033008955F926F927F928F929F92AF92BF9235
S1130340CF92DF92EF92FF920F931F93CF93DF939D
S1130350F42E152F623029F040F0633021F0C1E013
S113036005C0C4E103C0C4E101C0C8E294E6899FAA
S1130370B0011124882777FD8095982F2FEF30E066
S113038040E050E081D1A0E0BAE0A0D19B01AC01F3
S1130390AC2FB0E09BD1562E672E782E092FCF2D8F
S11303A0D12F0F2EF0E8CF2EF6E9DF2EF8E9EF2E4D
S11303B0F12CF02D10E00F2EFAE08F2E912CA12CB1
S11303C0B12CF02D652D762D872D902FA701960148
S11303D05BD129931F5F562E672E782E092FC701F4
S11303E0B601A501940150D169017A01143051F785
S11303F0DF91CF911F910F91FF90EF90DF90CF90FD
S1130400BF90AF909F908F907F906F905F90089572
S11304100F931F93CF93DF93182F062FEA01D1D0A8
S1130420812FF1D0802F15D10ED1812F8F5F09D16B
S113043087E592E00197F1F700C0000017D18B83A4
S113044087E592E00197F1F700C000000FD188839F
S113045087E592E00197F1F700C0000007D1898396
S113046087E592E00197F1F700C0000006D18A8386
S1130470EAD0DF91CF911F910F910895CF93DF932D
S1130480CDB7DEB728970FB6F894DEBF0FBECDBF49
S11304908EEF87BB81E088BB8FEF84BB8FE381BB8A
S11304A080EC82BB939A10E000E0F12CEE24E394FC
S11304B06894DD24D4F80F2EF3E0CF2EF02D689449
S11304C0BB24B1F848C0112319F01130A9F40AC0B3
S11304D0B09B04C0949A95980F2D5AC0959A9498FD
S11304E00E2D56C0879B04C0C69AC7980B2D38C0E2
S11304F0C79AC6980C2D34C01D821E821F8218868E
S113050019821A821B821C82AE014B5F5F4F64E02A
S113051080E97EDFE5E0F0E0EC0FFD1FE00FF11D68
S113052080818E3F60F0112311F04D2D03C04E2DBC
S113053001C04E2D6CE670E085E4F9DD0BC0AE0120
S11305404F5F5F4F602FF5DE412F6CE670E0CE0108
S113055001964BDE1F5F123008F4B5CF1F2DB8CFC4
S11305601D821E821F82188619821A821B821C8297
S1130570AE014B5F5F4F64E080E94ADFE5E0F0E005
S1130580EC0FFD1FE00FF11D80818E3F70F6D7CF79
S11305901D821E821F82188619821A821B821C8267
S11305A0AE014B5F5F4F64E080E932DFE5E0F0E0ED
S11305B0EC0FFD1FE00FF11D80818E3F08F0B9CFD5
S11305C0BECF11B88CE080B9089594EA96BF06B600
S11305D007FEFDCF91B1987F983011F0903179F4F6
S11305E083B984E886BF06B607FEFDCF91B1987F34
S11305F0983139F081E0903429F480E0089581E065
S1130600089580E0089524EA34E844E926BF06B654
S113061007FEFDCF91B1987F983011F09031B1F77A
S113062083B936BF06B607FEFDCF91B1987F9032ED
S113063011F0983529F446BF06B604FCFDCFE6CF89
S11306400895C3DF089584E986BF06B604FCFDCF90
S1130650089583B984E886BF06B607FEFDCF91B13D
S1130660987F81E0983209F480E0089584EC86BF95
S113067006B607FEFDCF83B1089584E886BF06B6AB
S113068007FEFDCF83B10895A1E21A2EAA1BBB1B5E
S1130690FD010DC0AA1FBB1FEE1FFF1FA217B3074A
S11306A0E407F50720F0A21BB30BE40BF50B661F60
S11306B0771F881F991F1A9469F760957095809524
S11306C090959B01AC01BD01CF01089509D0A59F70
S11306D0900DB49F900DA49F800D911D1124089539
S11306E0A29FB001B39FC001A39F01D0B29F700D20
S10F06F0811D1124911D0895F894FFCF82
S9030000FC
